{
  "_format": "hh-sol-artifact-1",
  "contractName": "Transactions",
  "sourceName": "contracts/Transactions.sol",
  "abi": [
    {
      "anonymous": false,
      "inputs": [
        {
          "indexed": false,
          "internalType": "address",
          "name": "from",
          "type": "address"
        },
        {
          "indexed": false,
          "internalType": "string",
          "name": "name",
          "type": "string"
        },
        {
          "indexed": false,
          "internalType": "string",
          "name": "email",
          "type": "string"
        },
        {
          "indexed": false,
          "internalType": "string",
          "name": "ethAddress",
          "type": "string"
        },
        {
          "indexed": false,
          "internalType": "uint256",
          "name": "timestamp",
          "type": "uint256"
        }
      ],
      "name": "SaveData",
      "type": "event"
    },
    {
      "inputs": [
        {
          "internalType": "string",
          "name": "name",
          "type": "string"
        },
        {
          "internalType": "string",
          "name": "email",
          "type": "string"
        },
        {
          "internalType": "string",
          "name": "ethAddress",
          "type": "string"
        }
      ],
      "name": "addToBlockChain",
      "outputs": [],
      "stateMutability": "nonpayable",
      "type": "function"
    },
    {
      "inputs": [],
      "name": "deleteData",
      "outputs": [],
      "stateMutability": "nonpayable",
      "type": "function"
    },
    {
      "inputs": [],
      "name": "getAllData",
      "outputs": [
        {
          "components": [
            {
              "internalType": "address",
              "name": "from",
              "type": "address"
            },
            {
              "internalType": "string",
              "name": "name",
              "type": "string"
            },
            {
              "internalType": "string",
              "name": "email",
              "type": "string"
            },
            {
              "internalType": "string",
              "name": "ethAddress",
              "type": "string"
            },
            {
              "internalType": "uint256",
              "name": "timestamp",
              "type": "uint256"
            }
          ],
          "internalType": "struct Transactions.DataStruct[]",
          "name": "",
          "type": "tuple[]"
        }
      ],
      "stateMutability": "view",
      "type": "function"
    },
    {
      "inputs": [],
      "name": "getTransactionCount",
      "outputs": [
        {
          "internalType": "uint256",
          "name": "",
          "type": "uint256"
        }
      ],
      "stateMutability": "view",
      "type": "function"
    }
  ],
  "bytecode": "0x608060405234801561001057600080fd5b50610c2d806100206000396000f3fe608060405234801561001057600080fd5b506004361061004c5760003560e01c8063228062ad146100515780632d10fa281461006d5780632e7700f01461008b578063e0ba432a146100a9575b600080fd5b61006b60048036038101906100669190610695565b6100b3565b005b610075610222565b604051610082919061094f565b60405180910390f35b610093610497565b6040516100a09190610971565b60405180910390f35b6100b16104a0565b005b60016000808282546100c59190610a53565b9250508190555060016040518060a001604052803373ffffffffffffffffffffffffffffffffffffffff16815260200185815260200184815260200183815260200142815250908060018154018082558091505060019003906000526020600020906005020160009091909190915060008201518160000160006101000a81548173ffffffffffffffffffffffffffffffffffffffff021916908373ffffffffffffffffffffffffffffffffffffffff16021790555060208201518160010190805190602001906101979291906104b0565b5060408201518160020190805190602001906101b49291906104b0565b5060608201518160030190805190602001906101d19291906104b0565b506080820151816004015550507f49a293a37d732c7ce80d31b2c65db115196bceb963c7fc8d6c617e3be015a62933848484426040516102159594939291906108e7565b60405180910390a1505050565b60606001805480602002602001604051908101604052809291908181526020016000905b8282101561048e57838290600052602060002090600502016040518060a00160405290816000820160009054906101000a900473ffffffffffffffffffffffffffffffffffffffff1673ffffffffffffffffffffffffffffffffffffffff1673ffffffffffffffffffffffffffffffffffffffff1681526020016001820180546102cf90610b27565b80601f01602080910402602001604051908101604052809291908181526020018280546102fb90610b27565b80156103485780601f1061031d57610100808354040283529160200191610348565b820191906000526020600020905b81548152906001019060200180831161032b57829003601f168201915b5050505050815260200160028201805461036190610b27565b80601f016020809104026020016040519081016040528092919081815260200182805461038d90610b27565b80156103da5780601f106103af576101008083540402835291602001916103da565b820191906000526020600020905b8154815290600101906020018083116103bd57829003601f168201915b505050505081526020016003820180546103f390610b27565b80601f016020809104026020016040519081016040528092919081815260200182805461041f90610b27565b801561046c5780601f106104415761010080835404028352916020019161046c565b820191906000526020600020905b81548152906001019060200180831161044f57829003601f168201915b5050505050815260200160048201548152505081526020019060010190610246565b50505050905090565b60008054905090565b600160006104ae9190610536565b565b8280546104bc90610b27565b90600052602060002090601f0160209004810192826104de5760008555610525565b82601f106104f757805160ff1916838001178555610525565b82800160010185558215610525579182015b82811115610524578251825591602001919060010190610509565b5b509050610532919061055a565b5090565b50805460008255600502906000526020600020908101906105579190610577565b50565b5b8082111561057357600081600090555060010161055b565b5090565b5b808211156105e957600080820160006101000a81549073ffffffffffffffffffffffffffffffffffffffff02191690556001820160006105b891906105ed565b6002820160006105c891906105ed565b6003820160006105d891906105ed565b600482016000905550600501610578565b5090565b5080546105f990610b27565b6000825580601f1061060b575061062a565b601f016020900490600052602060002090810190610629919061055a565b5b50565b600061064061063b846109bd565b61098c565b90508281526020810184848401111561065857600080fd5b610663848285610ae5565b509392505050565b600082601f83011261067c57600080fd5b813561068c84826020860161062d565b91505092915050565b6000806000606084860312156106aa57600080fd5b600084013567ffffffffffffffff8111156106c457600080fd5b6106d08682870161066b565b935050602084013567ffffffffffffffff8111156106ed57600080fd5b6106f98682870161066b565b925050604084013567ffffffffffffffff81111561071657600080fd5b6107228682870161066b565b9150509250925092565b60006107388383610845565b905092915050565b61074981610aa9565b82525050565b61075881610aa9565b82525050565b6000610769826109fd565b6107738185610a20565b935083602082028501610785856109ed565b8060005b858110156107c157848403895281516107a2858261072c565b94506107ad83610a13565b925060208a01995050600181019050610789565b50829750879550505050505092915050565b60006107de82610a08565b6107e88185610a31565b93506107f8818560208601610af4565b61080181610be6565b840191505092915050565b600061081782610a08565b6108218185610a42565b9350610831818560208601610af4565b61083a81610be6565b840191505092915050565b600060a08301600083015161085d6000860182610740565b506020830151848203602086015261087582826107d3565b9150506040830151848203604086015261088f82826107d3565b915050606083015184820360608601526108a982826107d3565b91505060808301516108be60808601826108c9565b508091505092915050565b6108d281610adb565b82525050565b6108e181610adb565b82525050565b600060a0820190506108fc600083018861074f565b818103602083015261090e818761080c565b90508181036040830152610922818661080c565b90508181036060830152610936818561080c565b905061094560808301846108d8565b9695505050505050565b60006020820190508181036000830152610969818461075e565b905092915050565b600060208201905061098660008301846108d8565b92915050565b6000604051905081810181811067ffffffffffffffff821117156109b3576109b2610bb7565b5b8060405250919050565b600067ffffffffffffffff8211156109d8576109d7610bb7565b5b601f19601f8301169050602081019050919050565b6000819050602082019050919050565b600081519050919050565b600081519050919050565b6000602082019050919050565b600082825260208201905092915050565b600082825260208201905092915050565b600082825260208201905092915050565b6000610a5e82610adb565b9150610a6983610adb565b9250827fffffffffffffffffffffffffffffffffffffffffffffffffffffffffffffffff03821115610a9e57610a9d610b59565b5b828201905092915050565b6000610ab482610abb565b9050919050565b600073ffffffffffffffffffffffffffffffffffffffff82169050919050565b6000819050919050565b82818337600083830152505050565b60005b83811015610b12578082015181840152602081019050610af7565b83811115610b21576000848401525b50505050565b60006002820490506001821680610b3f57607f821691505b60208210811415610b5357610b52610b88565b5b50919050565b7f4e487b7100000000000000000000000000000000000000000000000000000000600052601160045260246000fd5b7f4e487b7100000000000000000000000000000000000000000000000000000000600052602260045260246000fd5b7f4e487b7100000000000000000000000000000000000000000000000000000000600052604160045260246000fd5b6000601f19601f830116905091905056fea26469706673582212207eb421f259631fe038dd77caedaa07a44e155171ee93d407f9c1815ab3ae4d8264736f6c63430008000033",
  "linkReferences": {},
  "deployedLinkReferences": {}
}